:100000000C94E1030C9409040C9409040C948426C8
:100010000C9484260C9484260C9409040C940904F2
:100020000C9409040C9409040C9409040C9409041C
:100030000C9409040C9409040C9409040C9409040C
:100040000C943A260C9409040C9408260C94E2258E
:100050000C9409040C9409040C9409040C940904EC
:100060000C9409040C94090400407A10F35A00A07F
:10007000724E18090010A5D4E80000E87648170071
:1000800000E40B54020000CA9A3B000000E1F505B1
:10009000000080969800000040420F000000A086FB
:1000A00001000000102700000000E803000000002D
:1000B0006400000000000A000000000001000000D1
:1000C00000002C76D888DC674F0823DFC1DFAE59EB
:1000D000E1B1B796E5E3E453C63AE651997696E87E
:1000E000E6C28426EB898C9B62ED407C6FFCEFBC02
:1000F0009C9F40F2BAA56FA5F490055A2AF75C932D
:100100006B6CF9676DC11BFCE0E40D47FEF520E662
:10011000B500D0ED902E0300943577050080841E45
:10012000080000204E0A000000C80C333333330FA0
:10013000986E12831141EF8D2114893BE65516CF3D
:10014000FEE6DB18D1844B381BF77C1D901DA4BB49
:10015000E424203284725E228100C9F124ECA1E5FE
:100160003D275D2000434C4F5345204F4B0D0A0067
:100170004552524F520D0A00414C524541445920BC
:10018000434F4E4E4543540D0A00434F4E4E454398
:1001900054204641494C0D0A00434F4E4E454354AE
:1001A000204F4B0D0A00222C00222C220022544307
:1001B00050002B43495053544152543D002B434966
:1001C0005053534C3D002C31002B434950434C4F6E
:1001D00053453D002B43495052584745543A002B54
:1001E00043495052584745543D322C004453543AE9
:1001F000002B43545A563A002A50535554545A3AF5
:10020000002A50534E5749443A00434C4F534544FB
:100210000D0A000D0A2B524543454956453A000D3B
:100220000A2B43495052584745543A00626C6E6B52
:10023000696E660076657200302E362E3100682DAC
:100240006265617400363000627566662D696E0005
:10025000323536006465760041726475696E6F20D0
:100260004E616E6F006370750041546D6567613358
:1002700032385000636F6E0053494D3830300062A1
:1002800075696C6400446563203138203230323047
:100290002032303A34333A33320000000D0A444100
:1002A0005441204143434550543A003E002B4349BA
:1002B0005053454E443D002C22494E495449414C2F
:1002C00022002C2252454D4F544520434C4F534958
:1002D0004E4722002C22434C4F53494E4722002CBC
:1002E00022434C4F53454422002C22434F4E4E454F
:1002F0004354454422002B434950535441545553D1
:10030000002B4349505354415455533D002B43490E
:100310005052584745543A002B434950525847458C
:10032000543D342C00005EBCE2613FDD83C29C7E04
:1003300020A3FD1F41009D23BE46DB65F88C11AF55
:1003400032CA57E97400000000240027002A00493F
:10035000002B43444E534346473D22382E382E3817
:100360002E38222C22382E382E342E3422002B43C5
:10037000494653523B4530002B43474154543D308E
:10038000002B43495053485554002B43494943528D
:10039000002200222C2200222C22002B43535454F2
:1003A0003D22002B43495052584745543D31002BC4
:1003B0004349505153454E443D31002B4349504D24
:1003C00055583D31002B43474154543D31002B5388
:1003D000415042523D322C31002B53415042523D4C
:1003E000312C31002B43474143543D312C31002BFC
:1003F000434744434F4E543D312C224950222C2236
:10040000002B53415042523D332C312C2250574443
:10041000222C22002B53415042523D332C312C22AE
:1004200055534552222C22002B53415042523D330A
:100430002C312C2241504E222C22002B5341504271
:10044000523D332C312C22436F6E74797065222C0F
:10045000224750525322002B434F50533A002B4314
:100460004F50533F002B43455245473A002B4347DB
:100470005245473A002B435245473A00436F6E6E50
:10048000656374656420746F204750525300436F56
:100490006E6E6563742047505253206661696C65C7
:1004A0006400526567697374657220696E206E65B9
:1004B00074776F726B206661696C656400202E2E04
:1004C0002E00436F6E6E656374696E6720746F20D3
:1004D000004E6574776F726B3A2000436F6E6E65E5
:1004E0006374696E6720746F206E6574776F726BCA
:1004F0002E2E2E0053494D2069732050494E2D6CED
:100500006F636B65640053494D206973206D697397
:1005100073696E670043616E6E6F7420696E6974F3
:10052000004D6F64656D20696E69742E2E2E000D6E
:100530000A202020205F5F5F20205F5F2020202096
:100540002020202020205F5F0D0A2020202F205F08
:1005500020292F202F5F205F5F5F5F5F20202F20EB
:100560002F5F5F0D0A20202F205F20202F202F20BB
:100570002F2F202F205F205C2F2020275F2F0D0A98
:10058000202F5F5F5F5F2F5F2F5C5F2C202F5F2F1F
:100590002F5F2F5F2F5C5F5C0D0A20202020202022
:1005A00020202F5F5F5F2F2076302E362E31206F78
:1005B0006E2041726475696E6F204E616E6F0D0A18
:1005C000002657002B4346554E3D002B43424154D5
:1005D00043484B3D31002B434C54533D31002B439A
:1005E0004D45453D30004530004E4F542052454169
:1005F0004459004E4F5420494E53455254454400EF
:1006000053494D2050554B0053494D2050494E0001
:100610005245414459002B4350494E3A002B435018
:10062000494E3F004552524F520D0A004F4B0D0AA2
:100630000000436F6E6E656374696E6720746F208F
:1006400000436F6E6E656374696E6720746F20007F
:100650006D73292E005265616479202870696E6778
:100660003A20000000000800020100000304070017
:10067000000000000000000C040C040C040C040C2E
:10068000040C040C040C040C040C040C040C040CEA
:10069000040C040C040C040C040C040C040C040CDA
:1006A000040C040C040C040C040C040C040C040CCA
:1006B000040C040C040C040B040B040B040B040BBF
:1006C000040B040B040B040B040B040B040B040BB2
:1006D000040B040B040B040B040B040B040B04A00D
:1006E0000C0B040B040B040B040B040B040B040B8A
:1006F000040B040B040B04496E76616C696420489A
:100700005720636D643A20005365727665723A2013
:10071000005265646972656374696E6720746F2046
:10072000005265616479005061636B657420746F79
:100730006F206269673A2000436F6E6E65637420B4
:100740006661696C65642E20636F64653A200049B8
:100750006E76616C6964206175746820746F6B6576
:100760006E004C6F67696E2074696D656F757400FB
:100770004865617274626561742074696D656F7536
:100780007400000000002300260029000000000083
:10079000250028002B0004040404040404040202BD
:1007A00002020202030303030303010204081020F0
:1007B000408001020408102001020408102057277D
:1007C000A43111241FBECFEFD8E0DEBFCDBF12E0B1
:1007D000A0E0B1E0E0EAF4E702C005900D92A23497
:1007E000B107D9F724E0A2E4B2E001C01D92A3371B
:1007F000B207E1F713E0C0EED3E004C02197FE0199
:100800000E941C39CF3DD107C9F70E942D290C94B5
:10081000433A0C94000008950895DC01ED91FC9199
:100820000190F081E02D0994EF92FF920F931F93B6
:10083000CF93DF938C017B01D0E0C0E0F701EC0F98
:10084000FD1F6491662361F0D801ED91FC91019048
:10085000F081E02DC8010995892B11F02196EECF8A
:10086000CE01DF91CF911F910F91FF90EF900895EE
:10087000AF92BF92CF92DF92EF92FF920F931F93AE
:10088000CF93DF936C017B018B01040F151FEB01EC
:100890005E01AE18BF08C017D10759F06991D601A3
:1008A000ED91FC910190F081E02DC6010995892B15
:1008B00079F7C501DF91CF911F910F91FF90EF90D4
:1008C000DF90CF90BF90AF900895FC01538D448D81
:1008D000252F30E0842F90E0821B930B541710F0EB
:1008E000CF96089501970895FC01918D828D9817F8
:1008F00061F0A28DAE0FBF2FB11D5D968C91928DD0
:100900009F5F9F73928F90E008958FEF9FEF089500
:10091000FC01918D828D981731F0828DE80FF11DC9
:10092000858D90E008958FEF9FEF0895FC01918DE4
:10093000228D892F90E0805C9F4F821B91098F73DD
:10094000992708958DED92E00E94960421E0892B6D
:1009500009F420E0822F089580E090E0892B29F0AF
:100960000E94A20481110C9400000895FC01A48D42
:10097000A80FB92FB11DA35ABF4F2C91848D90E0C1
:1009800001968F739927848FA689B7892C93A089A4
:10099000B1898C91837080648C93938D848D98132E
:1009A00006C00288F389E02D80818F7D80830895C1
:1009B000EF92FF920F931F93CF93DF93EC0181E0AF
:1009C000888F9B8D8C8D98131AC0E889F989808156
:1009D00085FF15C09FB7F894EE89FF896083E88989
:1009E000F98980818370806480839FBF81E090E07B
:1009F000DF91CF911F910F91FF90EF900895F62E08
:100A00000B8D10E00F5F1F4F0F731127E02E8C8DA1
:100A10008E110CC00FB607FCFACFE889F9898081E6
:100A200085FFF5CFCE010E94B604F1CFEB8DEC0F20
:100A3000FD2FF11DE35AFF4FF0829FB7F8940B8F03
:100A4000EA89FB8980818062CFCFCF93DF93EC016D
:100A5000888D8823B9F0AA89BB89E889F9898C91A6
:100A600085FD03C0808186FD0DC00FB607FCF7CF62
:100A70008C9185FFF2CF808185FFEDCFCE010E9462
:100A8000B604E9CFDF91CF910895833081F028F447
:100A9000813099F08230A9F008958730A9F088302C
:100AA000C9F08430B1F4809180008F7D03C08091C3
:100AB00080008F7780938000089584B58F7784BD00
:100AC000089584B58F7DFBCF8091B0008F778093A0
:100AD000B00008958091B0008F7DF9CFCF93DF9360
:100AE000282F30E0F901ED59F94F8491F901E655CD
:100AF000F84FD491F901EA56F84FC491CC23A1F0F4
:100B000081110E944505EC2FF0E0EE0FFF1FEE571C
:100B1000F84FA591B491EC91ED2381E090E009F4B8
:100B200080E0DF91CF91089580E090E0FACF1F93AD
:100B3000CF93DF93282F30E0F901ED59F94F8491DD
:100B4000F901E655F84FD491F901EA56F84FC491EE
:100B5000CC23A9F0162F81110E944505EC2FF0E05F
:100B6000EE0FFF1FE457F84FA591B4918FB7F8949B
:100B7000EC91111108C0D095DE23DC938FBFDF917B
:100B8000CF911F910895DE2BF8CFCF93DF9390E0A4
:100B9000FC01E655F84F24918A56984FFC01849148
:100BA0008823C9F090E0880F991FFC01EB5BFC4F94
:100BB000A591B491FC01E457F84FC591D49161110E
:100BC0000DC09FB7F8948C91209582238C938881D7
:100BD000282328839FBFDF91CF910895623051F47D
:100BE0009FB7F8943C91822F809583238C93E88162
:100BF0002E2BEFCF8FB7F894EC912E2B2C938FBF29
:100C0000EACF8E3008F08E502091000190E4299FA9
:100C1000900111248770822B80937C0080917A0050
:100C2000806480937A0080917A0086FDFCCF809169
:100C300078009091790008953FB7F89480918702E9
:100C400090918802A0918902B0918A0226B5A89B52
:100C500005C02F3F19F00196A11DB11D3FBFBA2F4E
:100C6000A92F982F8827BC01CD01620F711D811D0E
:100C7000911D42E0660F771F881F991F4A95D1F793
:100C800008958F929F92AF92BF92CF92DF92EF9290
:100C9000FF926B017C010E941C064B015C01C11498
:100CA000D104E104F104B9F00E941C066819790925
:100CB0008A099B09683E73408105910580F321E014
:100CC000C21AD108E108F10888EE880E83E0981E68
:100CD000A11CB11CE4CFFF90EF90DF90CF90BF90AC
:100CE000AF909F908F9008952FB7F89460918302F2
:100CF0007091840280918502909186022FBF0895A1
:100D0000CF92DF92EF92FF920F931F93CF93DF93D7
:100D10008C01C62F0E9474066B017C010C2E000C06
:100D2000DD0B0E9474066C197D098E099F09683ECF
:100D3000734081059105A0F50E9474066C197D0928
:100D40008E099F09683E73408105910590F4F80172
:100D500080819181DC01ED91FC910084F185E02D91
:100D60000995892B31F460E070E0CB010E944106C7
:100D7000E3CFF80180819181DC01ED91FC91028447
:100D8000F385E02D09958C179D0759F681E0DF91D9
:100D9000CF911F910F91FF90EF90DF90CF9008952A
:100DA00080E0F5CF0F931F93CF93DF93EC010E9468
:100DB0007406688779878A879B87E881F98102842E
:100DC000F385E02DCE01099597FF15C00E947406AA
:100DD000088519852A853B85601B710B820B930B57
:100DE0000C811D812E813F81601771078207930757
:100DF00020F38FEF9FEFDF91CF911F910F91089517
:100E000020918D0230918E022817390771F490914C
:100E10008B0280918C02981741F0E0918B02F0E0F8
:100E2000EE5BFD4F808190E008958FEF9FEF089576
:100E3000EF92FF920F931F93CF93DF93DC015C96A9
:100E4000ED90FC905D97E114F10479F481E090E07D
:100E500013969C938E93129790E080E0DF91CF9150
:100E60001F910F91FF90EF9008955196ED91FC9195
:100E7000529750968C915097982F90950FB75E96F9
:100E80002C915E97122F127021FD6095F8942081AD
:100E9000112319F1282B2083E7012197F1F728E08E
:100EA000462F50E0308160FF1AC0382B3083E701B5
:100EB0002197F1F7BA0175956795215089F71123AC
:100EC00081F08081892380830FBF5C968D919C91F6
:100ED0000197F1F781E090E0C1CF2923DCCF3923DE
:100EE000E5CF9081892BEFCF20918D0230918E023A
:100EF0002817390771F480918C0220918B0290E0C1
:100F0000805C9F4F821B910960E470E00E94AC38C6
:100F1000089590E080E0089520918D0230918E0236
:100F200028173907B9F490918B0280918C02981799
:100F300089F0E0918B02F0E0EE5BFD4F8081209123
:100F40008B0230E02F5F3F4F2F73332720938B02AC
:100F500090E008958FEF9FEF0895CF92DF92EF9288
:100F6000FF920F931F93CF93DF93EC010E947406BF
:100F70008B019C01488159816A817B81CC80DD8015
:100F8000EE80FF80DC01C801841B950BA60BB70B1C
:100F90008C159D05AE05BF0530F18885882301F1CC
:100FA0000C191D092E093F094C0D5D1D6E1D7F1D7D
:100FB0004C155D056E057F0568F4488359836A8387
:100FC0007B83DF91CF911F910F91FF90EF90DF9086
:100FD000CF900895401751076207730728F3EDCFAC
:100FE000198681E0EECF80E0ECCFDC0180E061503B
:100FF00090F09D919827E92FEF70F0E0EB5DFC4FAA
:101000002491E92FE295EF70F0E0EB5CFC4FE49166
:10101000822F8E27ECCF0895DC012C911196ED9153
:10102000FC91F8948181822B81839281322F3095BB
:101030009323928387E090E00197F1F781818323E6
:10104000818383E290E00197F1F790817894EFEC4F
:10105000F0E03197F1F7922381E009F480E0089500
:10106000FC0190810180F281E02D292F209560FF05
:1010700014C0F8948281822382838181892B8183A9
:10108000A3E2B0E01197F1F78281982B92837894D4
:1010900087ED90E00197F1F70895F894828182231B
:1010A00082838181892B8183AFEFB0E01197F1F7C3
:1010B0008281982B928378948FE090E0EBCFDF923F
:1010C000EF92FF920F931F93CF93DF93EC01D62EF5
:1010D000E42E08E010E0FF24F39461E08D2D8F21D1
:1010E00009F460E0CE010E943008FF0C01501109A4
:1010F000A1F7E11010C0F894E981FA81918188810B
:10110000809589238183E981FA8192818881809504
:10111000892382837894DF91CF911F910F91FF9063
:10112000EF90DF900895FC0190810180F281E02D25
:10113000F8948181292F20958223818378943DE73B
:1011400043E050E0315029F1DA011197F1F7808145
:101150008923C1F3F8948281822382838181892B40
:1011600081837894ABE7B7E01197F1F7F894818128
:1011700082238183A3E1B1E01197F1F78081982365
:1011800081E009F080E07894E3E6F6E03197F1F74A
:10119000089580E0089560E177E280E090E00E94A9
:1011A0004106F0E0E0E00995FFCFDC01ED91FC9114
:1011B0000688F789E02D099591E0811101C090E042
:1011C000892F0895CF93DF93EC01E881F9810084A2
:1011D000F185E02D0995892B21F48D89DF91CF913F
:1011E000089581E0FBCF8FEF9FEF0895CF93DF93BA
:1011F0001F92CDB7DEB7DC01ED91FC910288F38937
:10120000E02D41E050E0BE016F5F7F4F09950197EF
:1012100031F4898190E00F90DF91CF9108958FEFA5
:101220009FEFF9CFDC011C96ED91FC9180819181BB
:10123000DC01ED91FC910680F781E02D0994CF93BC
:10124000DF931F92CDB7DEB76983DC01ED91FC918E
:101250000280F381E02D41E050E0BE016F5F7F4FDF
:1012600009950F90DF91CF910895FC019485992302
:1012700069F080819181DC01ED91FC910688F7890C
:10128000E02D099591E0811101C090E0892F08952A
:10129000DC011C961C921C978D919C91DC01ED91B8
:1012A000FC910488F589E02D0994DC01ED91FC9115
:1012B000028CF38DE02D2BE430E0099490E080E087
:1012C0000895FB0101900020E9F73197AF01461B1B
:1012D000570BDC01ED91FC910280F381E02D099424
:1012E0006FEE71E08DED92E00C946109CF93DF9386
:1012F000BC018DED92E00E941404EC010E94700983
:101300008C0F9D1FDF91CF910895CF93DF93FC0148
:1013100044815581608171818DED92E00E94380495
:10132000EC010E9470098C0F9D1FDF91CF910895F1
:101330008F929F92AF92BF92EF92FF920F931F9363
:10134000CF93DF93CDB7DEB7A1970FB6F894DEBF8A
:101350000FBECDBF7C01FA01CB0119A2223008F4E7
:101360002AE08E010F5D1F4F822E912CB12CA12CF3
:10137000BF01A50194010E94C038F901CA016A3079
:101380000CF5605DD8016E938D01232B242B252B4A
:1013900079F790E080E0109721F0BD01C7010E942D
:1013A0006109A1960FB6F894DEBF0FBECDBFDF91E5
:1013B000CF911F910F91FF90EF90BF90AF909F90B2
:1013C0008F900895695CDECFCF93DF93AC0170E01E
:1013D00060E02AE08DED92E00E949809EC010E9405
:1013E00070098C0F9D1FDF91CF910895462F50E01B
:1013F00070E060E02AE00C9498098F929F92AF927F
:10140000BF92CF92DF92EF92FF920F931F93CF93F1
:10141000DF937C018B014C0182E0880E911C570107
:10142000E5E0AE0EB11CD0E0C0E0F40161914F01E7
:10143000C8010E94F6096C016EE2C8010E940D0409
:101440008C0D9D1DC80FD91F8A149B0471F7F701DD
:101450006581C8010E94F6098C0F9D1FDF91CF9115
:101460001F910F91FF90EF90DF90CF90BF90AF90C2
:101470009F908F9008956BE58DED92E00E940D0492
:101480000E947406AB01BC012AE08DED92E00E943F
:10149000980962E671E08DED92E00C941404CF930C
:1014A000DF93BC018DED92E00E946109EC010E9486
:1014B00070098C0F9D1FDF91CF9108954F925F921D
:1014C0006F927F928F929F92AF92BF92CF92DF9254
:1014D000EF92FF920F931F93CF936B017C01742EB9
:1014E000AC019B010E94A7386AE871E0811126C017
:1014F00046015701E894B7F82FEF3FEF4FE75FE75A
:10150000C501B4010E94A73881110CC02FEF3FEF35
:101510004FE75FE7C501B4010E9427366EE871E02E
:10152000181664F02FEF3FEF4FE75FE4C701B601F5
:101530000E94A2381816ACF462E971E08DED92E0D9
:10154000CF911F910F91FF90EF90DF90CF90BF90C0
:10155000AF909F908F907F906F905F904F900C9482
:1015600061092FEF3FEF4FE75FECC701B6010E9423
:10157000273687FDE1CF20E030E0A901C701B601A1
:101580000E94273610E000E087FF0AC06DE28DED73
:1015900092E00E940D048C01F7FAF094F7F8F094B1
:1015A000C0E060E070E080E09FE37C1641F020E066
:1015B00030E040E251E40E940138CF5FF6CFA7014E
:1015C00096010E9495372B013C010E9473384B0114
:1015D0005C012AE0BC01A4018DED92E00E94980913
:1015E0007C01E00EF11ECC23D1F1C501B4010E94B3
:1015F0002C369B01AC01C301B2010E9494374B0110
:101600005C016EE28DED92E00E940D04E80EF91E81
:10161000C15028F120E030E040E251E4C501B401BE
:101620000E948D362B013C010E9473384B01B12C76
:10163000A12C2AE0B501A4018DED92E00E94980949
:10164000E80EF91EC501B4010E942C369B01AC01C5
:10165000C301B2010E9494374B015C01D9CFC7018D
:10166000CF911F910F91FF90EF90DF90CF90BF909F
:10167000AF909F908F907F906F905F904F90089564
:101680006115710511F00C94610990E080E00895F6
:10169000CF92DF92EF92FF920F931F93CF93DF933E
:1016A000EC016B017A010C851D8566E971E088818A
:1016B00099810E94400BB601888199810E9414048F
:1016C000B701888199810E94400B62E288819981EB
:1016D0000E940D04B801888199810E94400B888185
:1016E0009981DC01ED91FC910680F781E02D09954F
:1016F00060E070E0CB01DF91CF911F910F91FF90DF
:10170000EF90DF90CF900C944106EF92FF920F93F1
:101710001F93CF93DF93EC017B010C851D8566E958
:1017200071E0888199810E94400BB701888199817D
:101730000E941404B801888199810E94400B88811D
:101740009981DC01ED91FC910680F781E02D0995EE
:1017500060E070E0CB01DF91CF911F910F91FF907E
:10176000EF900C944106AF92BF92DF92EF92FF92FE
:101770000F931F93CF93DF93EC015B01D42E89016C
:10178000EC84FD8466E971E0888199810E94400BB8
:10179000B501888199810E9414046D2D88819981F9
:1017A0000E94F6096CE2888199810E940D04A801CB
:1017B00070E060E02AE0888199810E949809B70171
:1017C000888199810E94400B88819981DC01ED918B
:1017D000FC910680F781E02D099560E070E0CB0177
:1017E000DF91CF911F910F91FF90EF90DF90BF900D
:1017F000AF900C944106CF92DF92FF920F931F930C
:10180000CF93DF93EC016B01F42E0C851D8566E907
:1018100071E0888199810E94400BB601888199818D
:101820000E9414046F2D888199810E94F609B801E5
:10183000888199810E94400B88819981DC01ED911A
:10184000FC910680F781E02D099560E070E0CB0106
:10185000DF91CF911F910F91FF90DF90CF900C946B
:101860004106FC0124813581FB0144815581241707
:101870003507A0F0FC0180819181009779F0FB0190
:10188000608171816115710549F0241B350B820F50
:10189000931F0E940A3A21E0892B09F020E0822F51
:1018A00008958F929F92AF92BF92CF92DF92EF9264
:1018B000FF920F931F93CF93DF9300D000D000D0FF
:1018C0001F92CDB7DEB7FC0180809180CE010196DA
:1018D0007C0110E000E05C01C62E660FDD08C4014B
:1018E0000E94D20697FD0BC08C159D0541F0F701B3
:1018F00081937F010F5F1F4F0730110581F7C801EA
:1019000001970697D0F4F501E00FF11F1082C50191
:101910000E94063327960FB6F894DEBF0FBECDBFE8
:10192000DF91CF911F910F91FF90EF90DF90CF90BB
:10193000BF90AF909F908F90089581EF98EDEACF80
:10194000FB01808191810E9406339093A8028093CD
:10195000A70208950F931F93CF93DF93EC01FB0130
:1019600001900020E9F78F01061B170B8A819B81EC
:10197000A801480F591F2C813D812417350768F0B5
:1019800028813981A801820F931F0E94E4394A817E
:101990005B81400F511F5B834A83DF91CF911F9181
:1019A0000F9108950E94DF39AF92BF92CF92DF92DC
:1019B000EF92FF920F931F93CF93DF93DC01CD90B3
:1019C000DC901197C114D10439F01496CD91DC91BB
:1019D0008C017601209761F4DF91CF911F910F91D7
:1019E000FF90EF90DF90CF90BF90AF90089575017A
:1019F0005701BFEFAB1ABB0AF7018081082E000C1C
:101A0000990B0E940E36892B91F72197CC0DDD1D85
:101A10008881082E000C990B0E940E36892B29F024
:101A2000CE15DF0510F02197F3CFAE014F5F5F4F6A
:101A30004E195F09D80115965C934E931497CE14F6
:101A4000DF0420F4B701C6010E94E439D801ED910A
:101A5000FC91119714968D919C91E80FF91F1082BB
:101A6000BBCFAF92BF92CF92DF92EF92FF920F93D4
:101A70001F93CF93DF936B01EA01FB0144815581F2
:101A80004115510561F1FC01248135812115310594
:101A900031F12417350718F1C217D30710F0E90107
:101AA0002197FC0100811181C801AA24AA94BB24BA
:101AB000BA947801EC0EFD1EE816F906A0F0F601C6
:101AC000608171810E94293A009769F09C01201B76
:101AD000310BC217D30708F059010196EDCFAA24A4
:101AE000AA94BB24BA94C501DF91CF911F910F91A5
:101AF000FF90EF90DF90CF90BF90AF9008952F921E
:101B00003F924F925F926F927F928F929F92AF928D
:101B1000BF92CF92DF92EF92FF920F931F93CF93DA
:101B2000DF93FC01448055804114510409F4CDC079
:101B3000FB01648075806114710409F4C6C07A01E8
:101B40006B01EC01FA01A480B580A618B7080881E2
:101B50001981A114B104B9F4F60160817181C80141
:101B60000E94293A8C01009709F4AFC0F701608107
:101B70007181448155810E94E439F7018481958106
:101B8000080F191FE9CFB7FC10C0FB01208031807E
:101B90004201C801B1010E94293A009709F448C0E6
:101BA000860D971D8A0C9B1CF5CF3801F6016081CC
:101BB0007181C8010E94293A2C01009719F14C014A
:101BC000801A910AA401B801C3010E94E439680C8B
:101BD000791CF7016081718144815581C3010E94A4
:101BE000E439F70184809580680C791CF601048142
:101BF0001581040D151D8C819D818A0D9B1D9D8372
:101C00008C83D4CFB801C301DF91CF911F910F9185
:101C1000FF90EF90DF90CF90BF90AF909F908F900C
:101C20007F906F905F904F903F902F900C94133A5D
:101C30004814590409F449C08A819B818815990583
:101C400060F4B4016F5F7F4FC8010E942239009792
:101C5000E1F1998388839B828A824C815D81415026
:101C6000510957FD32C0B601CE010E94310D8C01E1
:101C700097FD2BC0F60124813581280F391F8881FB
:101C80009981820F931F4C815D81421B530BBC01D4
:101C90008A0D9B1D0E94ED398C819D818A0D9B1DB3
:101CA0009D838C8328813981820F931FFC011082D0
:101CB00088819981F7016081718144815581800F0C
:101CC000911F0E94E439A801CACFDF91CF911F91E3
:101CD0000F91FF90EF90DF90CF90BF90AF909F90CB
:101CE0008F907F906F905F904F903F902F900895CE
:101CF0000F931F93CF93DF93EC0188819981009715
:101D000059F02A813B812617370730F081E0DF91B7
:101D1000CF911F910F9108958B016F5F7F4F0E94AC
:101D20002239009759F0998388831B830A832C8179
:101D30003D81232B59F7FC011082E8CF80E0E7CFEB
:101D4000EF92FF920F931F93CF93DF93611571056D
:101D500041F480E0DF91CF911F910F91FF90EF90C0
:101D6000089541155105B1F07B01EC010C811D81F5
:101D7000040F151FB8010E94780E882351F32881A3
:101D800039818C819D81B701820F931F0E94133A84
:101D90001D830C8381E0DECF41E050E06CED71E00B
:101DA0000C94A00EEF92FF920F931F93CF93DF93AB
:101DB00000D000D0CDB7DEB77C01862F4AE08E017F
:101DC0000F5F1F4FB80190E00E946433F80101904B
:101DD0000020E9F73197AF01401B510BB801C70153
:101DE0000E94A00E0F900F900F900F90DF91CF9157
:101DF0001F910F91FF90EF9008950F931F93CF9332
:101E0000DF93CDB7DEB762970FB6F894DEBF0FBE93
:101E1000CDBF8C01CB014AE0BE016F5F7F4F0E94B6
:101E20006433BE016F5F7F4FC8010E94AA0C6296A7
:101E30000FB6F894DEBF0FBECDBFDF91CF911F91DB
:101E40000F910895CF93DF93EC01888199810097DA
:101E500011F00E947D32198218821D821C821B8221
:101E60001A82DF91CF910895CF93DF93EC01FB01AC
:101E700001900020E9F73197AF01461B570B0E94F4
:101E8000A00E811103C0CE010E94220FCE01DF916E
:101E9000CF910895CF93DF93EC01FB0144815581ED
:101EA000608171810E94A00E811103C0CE010E9449
:101EB000220FCE01DF91CF910895EF92FF920F9301
:101EC0001F93CF93DF93EC017B018A01BA010E943B
:101ED000780E81110BC0CE010E94220FCE01DF913E
:101EE000CF911F910F91FF90EF9008951D830C8368
:101EF000B701888199810E94133AF0CFFB010190CC
:101F00000020E9F73197AF01461B570B0C945D0F8A
:101F10000F931F93CF93DF93CDB7DEB7A2970FB682
:101F2000F894DEBF0FBECDBF8C01CB01BA01F80122
:101F30001182108213821282158214822AE0AE016D
:101F40004F5F5F4F0E946F33BE016F5F7F4FC801CD
:101F50000E947E0FA2960FB6F894DEBF0FBECDBFD3
:101F6000DF91CF911F910F9108950F931F93CF93FE
:101F7000DF93CDB7DEB7A1970FB6F894DEBF0FBEE3
:101F8000CDBF8C01CB01BA01F801118210821382FE
:101F90001282158214822AE0AE014F5F5F4F0E94C9
:101FA0009B33BE016F5F7F4FC8010E947E0FA196D9
:101FB0000FB6F894DEBF0FBECDBFDF91CF911F915A
:101FC0000F910895CF93DF93EC01FB0186179707DC
:101FD00049F0608171816115710541F0448155813D
:101FE0000E945D0FCE01DF91CF9108950E94220FD4
:101FF000F9CFFC01118210821382128215821482A1
:10200000FB0101900020E9F73197AF01461B570B08
:102010000C945D0FFC0180819181009711F00C946C
:102020007D3208958F929F92AF92BF92CF92DF92AE
:10203000EF92FF920F931F93CF93DF93CDB7DEB74D
:102040002C970FB6F894DEBF0FBECDBF7C01FB010D
:102050005A01828133812481958189873A872B8730
:102060009C87D701ED91FC91C28CD38C182F832EC5
:10207000922E092F61EF71E0CE0101960E94F90FB7
:1020800060E170E0CE0101960E94780E612FCE01D2
:1020900001960E94D20ECE0101960E94CC0E682DB0
:1020A000CE0101960E94D20ECE0101960E94CC0E66
:1020B000692DCE0101960E94D20ECE0101960E949A
:1020C000CC0E602FCE0101960E94D20E69817A81DA
:1020D0002BE430E0A501C701F60109957C01CE0192
:1020E00001960E940A10C7012C960FB6F894DEBF25
:1020F0000FBECDBFDF91CF911F910F91FF90EF9059
:10210000DF90CF90BF90AF909F908F900895EF9207
:10211000FF920F931F93CF93DF93EC0119821882E4
:102120001B821A821D821C826115710509F18B01C7
:10213000CB010E945B337C01BC01CE010E94780E72
:10214000811109C0CE01DF91CF911F910F91FF90B6
:10215000EF900C94220FFD82EC82B8018881998166
:10216000DF91CF911F910F91FF90EF900C9454331A
:10217000DF91CF911F910F91FF90EF9008952F92D3
:102180003F924F925F926F927F928F929F92AF9207
:10219000BF92CF92DF92EF92FF920F931F93CF9354
:1021A000DF93CDB7DEB7A4970FB6F894DEBF0FBEAE
:1021B000CDBF6C010DB71EB71CA30BA360E070E090
:1021C000CB010E944106D60157968D919C9158975C
:1021D000B12C029709F463C056968C9156978F5F85
:1021E00056968C93569754962D913C91232B19F02B
:1021F000BB24B3944DC08330D8F7F6018081918120
:102200000E943509882309F4F4C38E010F5F1F4F24
:102210001801D601ED91FC9180819181DC01ED9155
:10222000FC910084F185E02D0995181619060CF033
:10223000E0C3D601ED91FC91A080B1807E01B7E1B1
:10224000EB0EF11C10E000E0C5010E94D20697FDE4
:1022500047C0F70181937F010F5F1F4F05301105C4
:1022600099F7688C798C762467247624798E688E29
:10227000EA8CFB8CFE24EF24FE24FB8EEA8E611494
:10228000710491F5F601808191810E944809B12C79
:10229000D60156968C915697815056968C938B2DDD
:1022A000EBA1FCA10FB6F894FEBF0FBEEDBFA49644
:1022B0000FB6F894DEBF0FBECDBFDF91CF911F9157
:1022C0000F91FF90EF90DF90CF90BF90AF909F90D5
:1022D0008F907F906F905F904F903F902F900895D8
:1022E000012B09F496CFCECF0F8908A3011179C035
:1022F0000E947406D60116966D937D938D939C93E0
:10230000199757968D919C91892B09F064C06A9416
:10231000672809F060C0E9E0EE16F10409F441C055
:10232000F8ECEF16F10429F004E0E016F10409F0EE
:1023300046C00E943B0A65E576E08DED92E00E9482
:102340001404D60116964D915D916D917C9119976B
:102350001E968D919D910D90BC91A02D481B590BFF
:102360006A0B7B0B2AE08DED92E00E94980980E5D4
:1023700096E00E947609F60186819781A085B18555
:1023800086879787A08BB18B01E010E0108F078BB9
:10239000C6010E941E2760E070E0CB010E9441064A
:1023A00038CF0E943B0A8FE497E00E94760983E0D1
:1023B00090E0D60158969C938E93579763CF0E94D6
:1023C0003B0A68E377E08DED92E00E941404C701B8
:1023D0000E94E40957CFB5E0EB16F10409F019CFDC
:1023E00051CFE1E0EE16FE06A8F00E943B0A67E23C
:1023F00077E08DED92E00E941404C7010E94E40989
:10240000D60158961C921E9257978D919C910E94CE
:102410004809FFCEADB6BEB6C7010196EDB7FEB70F
:10242000E81BF90B0FB6F894FEBF0FBEEDBF0DB75A
:102430001EB70F5F1F4FD601ED91FC9120813181B6
:102440003AA329A34801512C412CE414F50469F066
:1024500089A19AA10E94D20697FD85C0D4018D93CF
:102460004D01BFEF4B1A5B0AF0CF48018E0C9F1C49
:10247000F40110820E947406D60116966D937D9326
:102480008D939C931997B8A1B13109F4A6C288F530
:10249000B630F1F0BF3009F4D5C0B23089F5D601BD
:1024A00057968D919C91892B99F40E943B0A81E269
:1024B00097E00E94760901E010E0F601108F078B8B
:1024C000C6010E941E2760E070E0CB010E94410619
:1024D000F12CE12C08EC10E030E020E0A30160E0FA
:1024E000C6010E9458160FB6F894BEBE0FBEADBE10
:1024F00090CEE8A1ED3199F268F4E43109F4A2C07C
:10250000D60158961C921E9257978D919C910E94CD
:102510004809E9CFF8A1F93281F0F73389F7EF28BC
:1025200011F30E943B0A68E077E08DED92E00E9493
:102530001404C8010E944F0AD6CFD60114968D917B
:102540009C91892B39F480E290E00E94E131F60100
:1025500095838483400E511E1A8309835C824B82CB
:102560000415150530F00FB6F894BEBE0FBEADBE13
:1025700089CE40E250E0B801D60114968D919C912D
:102580000E941A3AC1010E94FC26FC0180819181BF
:1025900000E510E08415950570F489819A81009713
:1025A00009F44CC02B813C818217930708F046C088
:1025B0000E9424338B010E943B0A61E177E08DED9C
:1025C00092E00E941404D60114966D917C918DEDD9
:1025D00092E00E94400B6AE38DED92E00E940D04B0
:1025E000C8010E94E409F601808191810E94480996
:1025F000D601ED91FC91119714968D919C911597B0
:10260000918780871387028758961C921E9257974E
:102610000E947406DC01CB0188589341A109B109DD
:10262000F60182879387A487B58786839783A087DF
:10263000B18786879787A08BB18B55CF60E070E01C
:10264000CB01B8CFD60155967C926E925497480133
:10265000840C951C1D8F0C8F9F8E8E8E081519056E
:1026600008F03DC1F801E080F180CE014C960E9457
:10267000FC26DC018D919C918815990508F02FC1ED
:102680008C8D9D8DFC012081213459F401960E948E
:1026900006333EE0732E780E069744F077247A9442
:1026A00005C0CE014C960E940F27782EF6E7EF1654
:1026B000F2E7FF0609F436C140F531E6E31632E7EA
:1026C000F30609F4CFC044E6E41642E7F40609F441
:1026D00083C050E7E5165DE6F50609F067C18C8D0D
:1026E0009D8D8815990508F0FAC0FC0120812134E0
:1026F00009F03FC001960E9406332EE0F22EF80E3C
:102700000697E4F1FF24FA9439C084E6E81687E7D7
:10271000F80609F48CC096E7E91697E7F90609F47C
:1027200018C1A1E6EA16A7E7FA0609F03FC1CE01F3
:102730004C960E94FC26DC018D919C918815990590
:1027400008F0CDC061E0872D0E94C505CE014C96F2
:102750000E940F278C0161E0872D0E94C50501159D
:10276000110509F47AC00F3F110509F093C061E02B
:1027700075C0CE014C960E940F27F82ECE014C96C4
:102780000E94FC260C8D1D8D69E971E0C8010E9434
:102790000A3A60E0892B79F06CE971E0C8010E9487
:1027A0000A3A892B39F060EA71E0C8010E940A3ABE
:1027B000892B49F461E08F2D0E94C505CE014C960E
:1027C0000E94FC268CCF64EA71E0C8010E940A3A9C
:1027D000892BA1F762E0EFCF3A8A298A1C8A1B8AEB
:1027E00000E110E01E8B0D8B67EA71E0CE0141968F
:1027F0000E94AA0C672D70E0CE0141960E94FD0E4A
:10280000872D0E946E05BC01CE0141960E94FD0EEF
:102810000B891C890150110929893A89F12CE12C75
:1028200050E040E064E1C6010E94581658C0CE0155
:102830004C960E94FC26DC018D919C91881599058F
:1028400008F04DC061E0872D0E94C505CE014C9671
:102850000E940F2761E0892B09F460E0872D0E9418
:1028600097053DC03A8A298A1C8A1B8AE0E1F0E07C
:10287000FE8BED8B6AEA71E0CE0141960E94AA0CB4
:10288000672D70E0CE0141960E94FD0E872D0E94BB
:102890000106B9CFE72DF0E0ED59F94FE491E330AF
:1028A00039F148F4E130B9F0E230E9F000381105CF
:1028B0000CF05DCFD2CFE73029F1E83059F1E430A8
:1028C000A9F78091800080628093800010938B0034
:1028D00000938A0004C084B5806884BD07BDF601FA
:1028E000158A148A00CE84B5806284BD08BDF7CFF6
:1028F000809180008068809380001093890000930D
:102900008800EDCF8091B00080688093B000009384
:10291000B300E5CF8091B00080628093B000009357
:10292000B400DDCF7982BFE1B715C8F2E72DF0E042
:10293000EE0FFF1FE958F94F25913491211531050C
:1029400071F2E4E02C303E0751F2C101F901099522
:10295000C6CFCE014C960E94FC268C8D9D8D9C018D
:10296000201B310B421A530A9A8389835C824B8263
:102970005E824D82798AFFE1F71508F4B0CFE72D2A
:10298000F0E0EE0FFF1FE954F94F25913491211526
:10299000310509F4A4CF04E02B30300709F49FCFB0
:1029A000B101CE014196F901099599CF0E943B0AE8
:1029B00067EF76E08DED92E00E941404C8010E945A
:1029C0004F0AD60154964D915C91F12CE12C02E016
:1029D00010E030E020E060E026CF1A8309839C827B
:1029E0008B820815190508F07ECDC1010E94FC26D6
:1029F0007ACD0E9474062B013C01D6018D919C91E9
:102A00000E943509F6012789308D2130310509F002
:102A100068C081110CC0D60146865786608A718ACB
:102A200058961C921E9257978D919C912ECC868120
:102A30009781A085B18593018201081B190B2A0B90
:102A40003B0BD901C801813B10E3910711E0A107BD
:102A5000B10540F00E943B0A80E797E00E947609AA
:102A6000D601DECF81369A4EA105B10598F4F60164
:102A700082859385A485B58593018201081B190B76
:102A80002A0B3B0BD901C80181369A4EA105B1052D
:102A900008F4AECBF60186859785A089B1899301AC
:102AA0008201081B190B2A0B3B0BD901C801813786
:102AB0009741A105B10508F49BCBF12CE12C10E066
:102AC00000E030E020E050E040E066E0C6010E9417
:102AD0005816D6011E964D925D926D927C9251973A
:102AE00087CB232B09F084CB468557856089718974
:102AF00093018201041B150B260B370BB901A801AA
:102B00008823A9F0413757416105710508F470CB5E
:102B10000E943B0A82E697E00E947609D6018D91D9
:102B20009C910E944809F601108E178AB0CB493853
:102B300053416105710508F45BCBD6018D919C91E1
:102B40000E944809F60100811181D80118968D91E3
:102B50009C91892BC9F10E943B0A62E376E08DEDDE
:102B600092E00E941404F801608571858DED92E079
:102B70000E94400B6AE38DED92E00E940D04D801A3
:102B80001A968D919C910E94E409F80180819181AF
:102B90004285538560857185DC01ED91FC9100884B
:102BA000F189E02D0995BB24B394019709F0B12C6C
:102BB000F801B486B1105BC0D6011E964D925D92AD
:102BC0006D927C92519764CB0E943B0A61E476E05F
:102BD0008DED92E00E941404D80114966C918DED55
:102BE00092E00E94F6096EE28DED92E00E940D04E3
:102BF000F80165818DED92E00E94F6096EE28DED9F
:102C000092E00E940D04D80116966C918DED92E031
:102C10000E94F6096EE28DED92E00E940D04F8012B
:102C200067818DED92E00E94F6090E947009D8013B
:102C30008D919C91DC01ED91FC910684F785E02D4E
:102C4000D8011A964D915C911B9728E831E03A83A0
:102C5000298314968D909D90AD90BC9017978B8290
:102C60009C82AD82BE82BE016F5F7F4F9BCF81E0B1
:102C700090E0F601938B828B22813381F9010190E0
:102C80000020E9F731978F01021B130BF12CE12C87
:102C900041E050E06DE1C6010E945816F6018285C0
:102CA0009385A485B58586879787A08BB18BF0CA5D
:102CB0002F923F924F925F926F927F928F929F924C
:102CC000AF92BF92CF92DF92EF92FF920F931F933A
:102CD000CF93DF931F92CDB7DEB77C0169836A0182
:102CE00049016DB67EB6DC018D919C910E9435093B
:102CF000882309F4C6C0B981BB2369F08B2F8B7F71
:102D0000823009F403C1BD3131F0F7018789908D1C
:102D1000019709F0B6C0C114D104B9F4D701549693
:102D2000CD90DC905597C114D10479F452968D91D1
:102D30009C915397019609F4C2C053969C938E932D
:102D40005297D7015296CD90DC9089818C50893072
:102D500090F5F70182859385A485B58546815781D5
:102D600060857185481759076A077B0710F4AC0125
:102D7000BD011A012B01F2E42F0E311C411C511C24
:102D80000E947406A2019101261B370B480B590BB8
:102D9000DA01C901B7FD99C0C7010E94BF100E94A6
:102DA0007406A2019101261B370B480B590BDA015F
:102DB000C901B7FFF1CF5801B5E0AB0EB11C8114CA
:102DC000910419F485E0A82EB12CEDB7FEB7EA19ED
:102DD000FB090FB6F894FEBF0FBEEDBF2DB73EB78F
:102DE0002F5F3F4F290139813183DC24CD24DC243E
:102DF000D2011296DC92CE921197902F812F1496C9
:102E00009C938E9313978114910451F00115110531
:102E100039F08DB79EB70696A801B4010E94E43937
:102E200010E000E00A151B0508F05BC0A501401B7F
:102E3000510B4115B4E05B0710F040E054E0D701BE
:102E4000ED91FC9180819181DC01ED91FC910280FA
:102E5000F381E02DB201600F711F09956C0160E0F4
:102E600070E0CB010E944106C114D104B9F5F7010D
:102E7000808191810E944809D70158961C921E9228
:102E800057970FB6F8947EBE0FBE6DBE0FB6F8947E
:102E90007EBE0FBE6DBE0F90DF91CF911F910F913F
:102EA000FF90EF90DF90CF90BF90AF909F908F906A
:102EB0007F906F905F904F903F902F90089581E0AA
:102EC00090E0F701938B828B3CCFD70156968C9183
:102ED000811171CFC7010E94BF106DCF0C0D1D1D58
:102EE000A1CFA016B10641F0F701108E178A80819C
:102EF00091810E944809C5CF0E947406D7011A9695
:102F00006D937D938D939C931D97BBCFC114D1047A
:102F100009F051CF03CFEF92FF920F931F93F12C43
:102F2000E12C10E000E030E020E050E040E060E123
:102F300086EE93E00E9458161F910F91FF90EF903C
:102F40000895EF92FF920F931F93CF93DF93CDB726
:102F5000DEB7C658D1090FB6F894DEBF0FBECDBF9D
:102F60007C01162FCE010196CF57DF4F99838883BE
:102F7000C158D040CD57DF4F19821882C358D04076
:102F800080E890E0CB57DF4F99838883C558D040C5
:102F90006DEA71E0CE018F579F4F0E94AA0CB701D6
:102FA000CE018F579F4F0E94FD0E612F70E0CE0122
:102FB0008F579F4F0E94FD0ECD57DF4F088119811B
:102FC000C358D04001501109CF57DF4F28813981B4
:102FD000C158D040F12CE12C50E040E064E186EE95
:102FE00093E00E945816CA57DF4F0FB6F894DEBF21
:102FF0000FBECDBFDF91CF911F910F91FF90EF904A
:103000000895CF92DF92EF92FF920F931F93CF9389
:10301000DF93CDB7DEB7C75AD1090FB6F894DEBF3C
:103020000FBECDBF8C016A017B01CE010196CE554A
:10303000DF4F99838883C25AD040CC55DF4F198225
:103040001882C45AD04080E890E0CA55DF4F998377
:103050008883C65AD0406DEA71E0CE018E559F4FED
:103060000E94AA0CB801CE018E559F4F0E94FD0E02
:103070008E010F571F4F23E045E0C701B6010E94A4
:10308000C331B801CE018E559F4F0E94AA0CCC557A
:10309000DF4F08811981C45AD04001501109CE5523
:1030A000DF4F28813981C25AD040F12CE12C50E009
:1030B00040E064E186EE93E00E945816C955DF4F68
:1030C0000FB6F894DEBF0FBECDBFDF91CF911F9139
:1030D0000F91FF90EF90DF90CF900895EF92FF92C5
:1030E0000F931F93CF93DF93CDB7DEB7C658D109A7
:1030F0000FB6F894DEBF0FBECDBF7C018B01CE01B1
:103100000196CF57DF4F99838883C158D040CD5760
:10311000DF4F19821882C358D04080E890E0CB5727
:10312000DF4F99838883C558D0406DEA71E0CE01A6
:103130008F579F4F0E94AA0CB701CE018F579F4F08
:103140000E94FD0EB801CE018F579F4F0E94FD0EC9
:10315000CD57DF4F08811981C358D0400150110964
:10316000CF57DF4F28813981C158D040F12CE12C55
:1031700050E040E064E186EE93E00E945816CA57A2
:10318000DF4F0FB6F894DEBF0FBECDBFDF91CF91FA
:103190001F910F91FF90EF9008952F923F924F92C1
:1031A0005F926F927F928F929F92AF92BF92CF92D7
:1031B000DF92EF92FF920F931F93CF93DF93CDB7E0
:1031C000DEB766970FB6F894DEBF0FBECDBF2C01F9
:1031D0004B8B5C8B6D8B7E8B39011A870987FC8644
:1031E000EB86DE86CD86B88AAF869A8A898A60E4C5
:1031F00070E0C9010E94780E0E9474064B015C01C8
:103200008E010F5F1F4F60E070E0CB010E9441060E
:10321000D2018D919C91DC01ED91FC910084F185AE
:10322000E02D0995181619060CF0CAC160E070E08F
:10323000CB010E944106F20180819181DC01ED9178
:10324000FC910284F385E02D099518160CF789830B
:103250001A8241E050E0B801C3010E94A00EE98546
:10326000FA85309771F0BF01C8010E948710B8013C
:10327000C3010E94310CF82EC8010E940A10F110FF
:10328000B9C12B853C852115310571F0B901C80103
:103290000E948710B801C3010E94310CF82EC801AA
:1032A0000E940A10F110C0C14D855E85411551057F
:1032B00071F0BA01C8010E948710B801C3010E94D1
:1032C000310CF82EC8010E940A10F110AFC18F8591
:1032D0009889009771F0BC01C8010E948710B8015D
:1032E000C3010E94310CF82EC8010E940A10F1108F
:1032F0009FC1A989BA89109771F0BD01C8010E94C8
:103300008710B801C3010E94310CF82EC8010E9439
:103310000A10F1108FC16FE172E0C8010E9487109E
:10332000B801C3010E94310CF82EC8010E940A1096
:10333000FF20B1F16CE2C2010E94510CF82EB1E005
:103340008B131AC06AE0C2010E94510C853070F4E0
:10335000E82F880FFF0B3196EE0FFF1FE40DF51DD0
:103360000190F081E02D309709F0F68A61EF71E06D
:10337000C3010E947E0F4CCF4AE0B801082E000C1A
:10338000990B0E946433F80101900020E9F731970E
:10339000AF01401B510BB801C3010E94A00E38CFF2
:1033A00063E172E0C8010E948710B801C3010E9466
:1033B000310CF82EC8010E940A10FF2021F16CE2A6
:1033C000C2010E94510CF82E6AE0C2010E94510C09
:1033D000E4E0EF1558F2EF2DFF0CFF0B3196EE0FE6
:1033E000FF1FE40DF51D0190F081E02D309709F4E9
:1033F000BDCF21E0268B813034E0930708F0B6CFB3
:10340000908B8787B3CF6AE072E0C8010E94871073
:10341000B801C3010E94310CF82EC8010E940A10A5
:10342000FF2009F48AC0D3011496ED90FC90B8E017
:10343000EB1AF1086FEE71E0C8010E94F90FA701C5
:10344000B801C3010E94310D282EC8010E940A1044
:10345000022C000C3308E2E02E0E311CD30114962E
:103460008D919C9115972816390608F060C0ED9053
:10347000FC906CE270E0C701820D931D0E94FF3941
:10348000009709F454C08E199F09E82E880FFF0891
:10349000E214F30428F4922D832D1701E92EF82E5F
:1034A00061EF71E0C8010E94F90FF301C480D5807B
:1034B0002C143D04E8F4EC14FD0408F46701D30176
:1034C000ED91FC911197EC0DFD1DF08010826D9136
:1034D0007C91620D731DC8016115710559F10E943F
:1034E0007E0FF30180819181C80ED91ED601FC9216
:1034F00089819A81F12C009719F00E942433F62ECD
:10350000C8010E940A10B4E0BF1508F42FCFEF2DB8
:10351000FF0CFF0B3196EE0FFF1FE40DF51D019020
:10352000F081E02D309709F421CF158A1FCF8FEF5E
:103530009FEFABCF0E94220FD4CF61E072E0C801B1
:103540000E948710B801C3010E94310CF82EC801F7
:103550000E940A10FF2029F06AE0C2010E94800642
:1035600005CF68EF71E0C8010E948710B801C30160
:103570000E94310CF82EC8010E940A10F110ECCF05
:1035800061EF71E0C8010E948710B801C3010E9479
:10359000310CF82EC8010E940A10F110DDCF6CEE3C
:1035A00071E0C8010E948710B801C3010E94310C6C
:1035B000F82EC8010E940A10FF2009F429CECCCFB2
:1035C0000E947406681979098A099B092B893C892C
:1035D0004D895E89621773078407950708F413CE37
:1035E000C3010E94D40C61EF71E0C3010E947E0F01
:1035F00080E001C081E066960FB6F894DEBF0FBE92
:10360000CDBFDF91CF911F910F91FF90EF90DF9091
:10361000CF90BF90AF909F908F907F906F905F9072
:103620004F903F902F90089582E0E5CF83E0E3CF65
:1036300084E0E1CF85E0DFCF2F923F924F925F92FF
:103640006F927F928F929F92AF92BF92CF92DF92B2
:10365000EF92FF920F931F93CF93DF93CDB7DEB717
:1036600028970FB6F894DEBF0FBECDBF3C011A01FC
:103670002B0138872F8361EF71E0CE0101960E9404
:10368000F90F45015601670178010F8118859E01E8
:103690002F5F3F4FB201A101C3010E94CD18182F27
:1036A000CE0101960E940A10812F28960FB6F89439
:1036B000DEBF0FBECDBFDF91CF911F910F91FF9065
:1036C000EF90DF90CF90BF90AF909F908F907F90C2
:1036D0006F905F904F903F902F9008954F925F9220
:1036E0006F927F92AF92BF92CF92DF92EF92FF9252
:1036F0000F931F93CF93DF93EC010E9474062B016D
:103700003C010E94740664197509860997096031A5
:10371000774281059105F8F461E376E0CE010E94DD
:10372000850BB12CA12CD12CC12CF12CE12C04E265
:1037300016E02CE236E048EC50E060E070E0CE01AC
:103740000E941C1B8130B9F064E670E080E090E0DC
:103750000E944106D6CF80E0DF91CF911F910F915B
:10376000FF90EF90DF90CF90BF90AF907F906F90E1
:103770005F904F90089581E0EFCFAF92BF92CF92CC
:10378000DF92EF92FF920F931F93CF93DF93F82E68
:10379000C1EFD1E0662311F0C0EBD1E000919A03B4
:1037A00010919B0366E971E080918E0390918F03E5
:1037B0000E94400B64EC75E080918E0390918F0322
:1037C0000E9414046F2D80918E0390918F030E94AC
:1037D000F609BE0180918E0390918F030E94400BE9
:1037E000B80180918E0390918F030E94400B8091CD
:1037F0008E0390918F03DC01ED91FC910680F7819F
:10380000E02D099560E070E0CB010E944106B12CEB
:10381000A12CD12CC12CF12CE12C04E216E02CE2DD
:1038200036E040E157E260E070E08EE893E00E940D
:103830001C1B91E0813009F090E0892FDF91CF913E
:103840001F910F91FF90EF90DF90CF90BF90AF90BE
:103850000895AF92BF92CF92DF92EF92FF920F93B3
:103860001F935701680179018A019B0148EE53E0DB
:1038700060E070E00E941C1B1F910F91FF90EF9081
:10388000DF90CF90BF90AF9008958F929F92AF92AC
:10389000BF92DF92EF92FF920F931F93CF93DF932C
:1038A000EC010E9474064B015C010E9474066819C9
:1038B00079098A099B09603177428105910508F0F1
:1038C00042C06DE176E0CE010E94850BF12CE12C27
:1038D00010E000E030E020E044E256E066E176E00F
:1038E000CE010E94291C813039F068EE73E080E03F
:1038F00090E00E944106D9CF89EEE82E85E0F82EAF
:1039000003EF15E020E036E048E056E060E176E0C5
:10391000CE010E94291CD82EF12CE12C10E000E0F1
:1039200030E020E044E256E06CE276E0CE010E9416
:10393000291C81E0D81651F0D8162CF023E082E043
:1039400090E02D152CF490E080E002C081E090E042
:10395000DF91CF911F910F91FF90EF90DF90BF907B
:10396000AF909F908F900895AF92BF92CF92DF92C9
:10397000EF92FF920F931F93CF93DF93EC010E947E
:103980006E1B811102C080E053C066EE75E0CE016F
:103990000E94850BF12CE12C10E000E030E020E0EB
:1039A00044E256E06CE276E0CE010E94291C8130B0
:1039B00051F76EED75E0CE010E94850B30E020E0FE
:1039C00044E256E06CE276E0CE010E94291C66EDEE
:1039D00075E0CE010E94850BB12CA12CD12CC12CFD
:1039E00004E216E02CE236E040E157E260E070E0ED
:1039F000CE010E941C1B813031F66BEC75E0CE01CC
:103A00000E94850B10E000E030E020E044E256E048
:103A10006CE276E0CE010E94291CCE010E94451C7A
:103A20009C012150310981E02230310508F0ABCFF3
:103A3000DF91CF911F910F91FF90EF90DF90CF908A
:103A4000BF90AF900895EF92FF920F931F938EE86F
:103A500093E00E946E1B882371F161EC75E08EE8A3
:103A600093E00E94850BF12CE12C10E000E030E0A7
:103A700020E044E256E06CE276E08EE893E00E94BB
:103A8000291C60E080E00E94BD1B8823A1F061E05A
:103A900081E00E94BD1B882371F068EB7BE080E031
:103AA00090E00E9441068EE893E01F910F91FF90F5
:103AB000EF900C94B41C80E01F910F91FF90EF9059
:103AC00008954F925F926F927F928F929F92AF92E2
:103AD000BF92CF92DF92EF92FF920F931F93CF93FB
:103AE000DF93CDB7DEB72C970FB6F894DEBF0FBECD
:103AF000CDBF83E191E09093E9038093E8030E94B6
:103B00007406DC01CB0188589341A109B109809367
:103B1000F0039093F103A093F203B093F303809327
:103B2000EC039093ED03A093EE03B093EF03809327
:103B3000F4039093F503A093F603B093F7030E9468
:103B40003B0A8FE295E00E9476098EE893E090931D
:103B500000048093FF0390930E0480930D04109251
:103B60001104109210041092120410921304109277
:103B70001404109215041092160410921704109257
:103B80000F0481E094E09093910380939003E0917F
:103B9000E603F091E7039183808380E797E1A0E05B
:103BA000B0E08093050490930604A0930704B093BB
:103BB000080483EB91E09187808780E590E093870C
:103BC00082870E943B0A81E295E00E9476098091FB
:103BD000FF03909100040E94B41C811108C00E9450
:103BE0003B0A85E195E00E9476090E94CB0880910E
:103BF000FF03909100040E94451C009739F0029742
:103C000051F40E943B0A84EF94E0EDCF0E943B0AFE
:103C100086E095E0E8CF0E943B0A8BED94E00E949D
:103C200076098090FF03909000040E9474062B0197
:103C30003C010E947406641975098609970960366B
:103C40007A4E8105910508F095C2D4011C96CD905D
:103C5000DC901D9766E971E08D919C910E94400B6C
:103C60006BE2F401808191810E940D0463EC71E0AC
:103C7000D4018D919C910E94400B6FE3F4018081EF
:103C800091810E940D04B601D4018D919C910E94F6
:103C9000400BF40180819181DC01ED91FC91068063
:103CA000F781E02D099560E070E0CB010E944106AC
:103CB000F12CE12C10E000E025E634E04DE654E084
:103CC00065E774E0C4010E94291C81508330F0F440
:103CD0006CE2C4010E9480066AE0C4010E94510C9B
:103CE000D82E30E020E044E256E06CE276E0C401F9
:103CF0000E94291C8D2D8B7F813009F440C26AEF10
:103D000070E080E090E00E94410693CF8FEFF3CF08
:103D100061EF71E0CE0107960E94F90F0E943B0A05
:103D200061ED74E08DED92E00E941404CE010796DF
:103D30000E948509CE0107960E940A100E943B0A44
:103D400062EC74E08DED92E00E9414046AE071E090
:103D50008DED92E00E94400B8DEB94E00E9476097D
:103D60008090FF039090000461E873E0C4010E941A
:103D7000850BB12CA12CD12CC12CF12CE12C04E20F
:103D800016E02CE236E040E65AEE60E070E0C40156
:103D90000E941C1B813071F468E773E0C4010E942B
:103DA000850B2CE236E040E65AEE60E070E0C4019C
:103DB0000E941C1B6BE374E0C4010E94850BF12C74
:103DC000E12C10E000E030E020E044E256E06CE25C
:103DD00076E0C4010E94291C4AE051E068E274E0E8
:103DE000C4010E94480B30E020E044E256E06CE25F
:103DF00076E0C4010E94291C8091DC02882381F0B6
:103E00004CED52E064E174E0C4010E94480B30E0E4
:103E100020E044E256E06CE276E0C4010E94291CF6
:103E20008091DB028823A1F04BED52E061E074E069
:103E3000C4010E94480BF12CE12C10E000E030E0BE
:103E400020E044E256E06CE276E0C4010E94291CC6
:103E50004AE051E06FEE73E0C4010E94480BF12C80
:103E6000E12C10E000E030E020E044E256E06CE2BB
:103E700076E0C4010E94291C64EE73E0C4010E9434
:103E8000850BB12CA12CD12CC12C04E216E02CE224
:103E900036E040E65AEE60E070E0C4010E941C1B70
:103EA00069ED73E0C4010E94850B2CE236E048E026
:103EB0005CE461E070E0C4010E941C1B6EEC73E0E6
:103EC000C4010E94850B2CE236E040E355E760E038
:103ED00070E0C4010E941C1B813009F028C165EC10
:103EE00073E0C4010E94850B2CE236E040E65AEEF6
:103EF00060E070E0C4010E941C1B813009F017C112
:103F00006BEB73E0C4010E94850B10E000E030E031
:103F100020E044E256E06CE276E0C4010E94291CF5
:103F2000813009F004C16FEA73E0C4010E94850B7F
:103F300030E020E044E256E06CE276E0C4010E940A
:103F4000291C813009F0F3C063EA73E0C4010E94C8
:103F5000850B30E020E044E256E06CE276E0C401FC
:103F60000E94291C813009F0E2C0D4011C966D909A
:103F70007C901D9766E971E08D919C910E94400BA9
:103F80006BE973E0F401808191810E9414046AE07E
:103F900071E0D4018D919C910E94400B67E973E020
:103FA000F401808191810E9414046CED72E0D401CF
:103FB0008D919C910E94400B63E973E0F401808134
:103FC00091810E9414046BED72E0D4018D919C915B
:103FD0000E94400B61E973E0F401808191810E94AD
:103FE0001404B301D4018D919C910E94400BF40103
:103FF00080819181DC01ED91FC910680F781E02DBB
:10400000099560E070E0CB010E94410604E216E0F1
:104010002CE236E040E65AEE60E070E0C4010E9417
:104020001C1B813009F083C06AE873E0C4010E9460
:10403000850B2CE236E040E65AEE60E070E0C40109
:104040000E941C1B813009F072C06EE673E0C4014F
:104050000E94850B2CE236E040E157E260E070E020
:10406000C4010E941C1B813009F061C061E573E04E
:10407000C4010E94850B10E000E030E020E044E243
:1040800056E06CE276E0C4010E94291C813009F000
:104090004EC00E943B0A8CE794E00E947609809112
:1040A000E6039091E7030E9448091092FE031092E4
:1040B000FD030E9474062B013C018091FD03909149
:1040C000FE030197C9F10E947406641975098609F7
:1040D0009709603576448105910570F586EE93E089
:1040E0000E94BF10EACFF12CE12C10E000E030E09C
:1040F00020E044E256E06CE276E0C4010E94291C14
:1041000089819A8198878F838B819C819A878987FF
:104110008D819E819C878B871A8219821C821B82CB
:104120001E821D82CE0101960E940A10F7CD0E94C8
:104130003B0A8EE894E057CD8091FD039091FE03F9
:10414000019709F0ACCF2C960FB6F894DEBF0FBEE6
:10415000CDBFDF91CF911F910F91FF90EF90DF9036
:10416000CF90BF90AF909F908F907F906F905F9017
:104170004F9008950E943B0A82EA94E034CD8090EB
:10418000FF03909000046EE574E0C4010E94850B6B
:10419000F12CE12C10E000E030E020E044E256E0B9
:1041A00067E574E0C4010E94291C813009F0B0CD9C
:1041B00062E2C4010E948006F4016080718061EFB8
:1041C00071E0CE0101960E94F90FC3010E94D20650
:1041D00097FD89CF8232910509F485CF8F831886A8
:1041E00041E050E0BE01695F7F4FCE0101960E9421
:1041F000A00EEBCF6F927F928F929F92AF92BF9261
:10420000CF92DF92EF92FF920F931F93CF93DF93A2
:10421000EC015C01D12CD50112968D909C901397E6
:104220008114910409F480C0F4018689882309F47B
:104230007BC0168A12968D919C91892B09F44EC0F1
:104240004D2D68E173E0CE010E94FB0BF12CE12CB7
:1042500010E000E030E020E044E256E06DE073E082
:10426000CE010E94291C8130E1F1D50112966D909A
:104270007C904D2D61E073E0CE010E94FB0BF12C90
:10428000E12C10E000E030E020E044E256E066EF90
:1042900072E0CE010E94291C87EBE82E82E0F82E06
:1042A00002EC12E024ED32E04FED52E069EE72E0F4
:1042B000CE010E94291CC82EF12CE12C10E000E058
:1042C00030E020E044E256E06CE276E0CE010E946D
:1042D000291C81E0C81280E0F301858B712C612CD0
:1042E0001EC06CE2CE010E9480066CE2CE010E94EC
:1042F00080066AE0CE010E94510C3C01F12CE12CB9
:1043000010E000E030E020E044E256E06CE276E0CD
:10431000CE010E94291C6114710409F4A6CFD401B6
:1043200050967C926E921F97B2E0AB0EB11CD39464
:10433000E5E0DE1270CF88819981DC01ED91FC917E
:104340000084F185E02D0995892B91F0B12CA12CE9
:10435000D12CC12CF12CE12C10E000E030E020E069
:104360004FE050E060E070E0CE010E941C1BE3CF04
:10437000DF91CF911F910F91FF90EF90DF90CF9041
:10438000BF90AF909F908F907F906F9008958F9285
:104390009F92AF92BF92EF92FF920F931F93CF9392
:1043A000DF93EC0160E070E0CB010E9441067E01EA
:1043B00027E5E20EF11C8E01075A1F4FF70180819D
:1043C0009181F80120813181821B930B97FF3AC0C4
:1043D000803CFFEF9F0729F50E94740689889A8820
:1043E000AB88BC88681979098A099B09653F7140C7
:1043F0008105910540F081E08E8B0E947406698BE7
:104400007A8B8B8B9C8B8C859D850E94FA20F70183
:1044100080819181F80120813181821B930B97FF6C
:1044200002C0805C9F4F2F853889820F931FDF91D8
:10443000CF911F910F91FF90EF90BF90AF909F9001
:104440008F900895009779F7C7CFAF92BF92CF9220
:10445000DF92EF92FF920F931F93CF93DF938C0124
:104460005B016A0160E070E0CB010E944106D80167
:104470001C968D919C910E94FA20F801C485D585E7
:10448000960146856DEA72E0CE010E94B30BF12CD5
:10449000E12C10E000E030E020E044E256E06BEA7E
:1044A00072E0CE010E94291C813089F588819981B2
:1044B000DC01ED91FC910280F381E02DA601B501B4
:1044C000099588819981DC01ED91FC910680F78145
:1044D000E02D099530E020E044E256E06CE972E01E
:1044E000CE010E94291C813091F46CE2CE010E9421
:1044F00080066AE0CE01DF91CF911F910F91FF906E
:10450000EF90DF90CF90BF90AF900C94510C90E063
:1045100080E0DF91CF911F910F91FF90EF90DF909E
:10452000CF90BF90AF9008954F925F926F927F921D
:10453000AF92BF92CF92DF92EF92FF920F931F93B1
:10454000CF93DF93C42ED12CCC0CDD1CC80ED91E0A
:10455000D60112962D913C91232B89F480E090E0B6
:10456000DF91CF911F910F91FF90EF90DF90CF904F
:10457000BF90AF907F906F905F904F9008959B0198
:10458000EC016FED71E00E94B30BF12CE12C10E017
:1045900000E030E020E044E256E064ED71E0CE015E
:1045A0000E94291C8130D1F66CE2CE010E94800667
:1045B0006CE2CE010E9480066CE2CE010E94510C9A
:1045C0005C016AE0CE010E94510C7C010A151B05BA
:1045D0000CF051C00E9474062B013C018881998126
:1045E000DC01ED91FC910084F185E02D0995892B8A
:1045F000C9F40E9474066419750986099709D601E1
:104600001296ED91FC912481358146815781621784
:1046100073078407950730F460E070E0CB010E94D7
:104620004106DCCF88819981DC01ED91FC91028407
:10463000F385E02D0995F60122813381F901E95ACC
:10464000FF4F60817181AB014F5F5F4F4F73552703
:10465000D901A75ABF4F0D90BC91A02D4A175B07F7
:1046600039F0260F371FD90157968C935183408319
:104670000F5F1F4FABCFD6011296ED91FC91F08AE0
:10468000E786F12CE12C10E000E030E020E044E28D
:1046900056E06CE276E0CE010E94291CC50160CF95
:1046A0002F923F924F925F926F927F928F929F9242
:1046B000AF92BF92CF92DF92EF92FF920F931F9330
:1046C000CF93DF93CDB7DEB728970FB6F894DEBF50
:1046D0000FBECDBF98878F832B015C834B8360E037
:1046E00070E0CB010E944106AF81B8851C968D9188
:1046F0009C910E94FA20D12CC12CEF81F885E95AB7
:10470000FF4FFA83E9836F807884F9E56F0E711C9F
:104710008F81988547969E838D83AB81BC81CA1615
:10472000DB0608F0A1C0E981FA8180819181D30183
:104730002D913C91821B930B97FF02C0805C9F4F91
:104740004C012B813C812C193D0982179307D8F528
:10475000892BD9F154011201F301E080F180A98184
:10476000BA818D919C918E199F0997FF02C0805C40
:104770009F4F009719F100E410E00E191F09A016D1
:10478000B1060CF48501801791070CF48C016D8142
:104790007E816E0D7F1DA801C1010E94E439E00EEB
:1047A000F11EBFE3EB22FF24F301F182E082A01AA5
:1047B000B10A200E311EA114B10471F6480C591C27
:1047C000C80CD91CAACF4901C5CF0E947406AF817D
:1047D000B88551960D911D912D913C915497601B78
:1047E000710B820B930B653F71408105910570F051
:1047F00021E0EF81F885268B0E947406AF81B88591
:1048000051966D937D938D939C935497EF81F8858A
:10481000848595850E94FA20AF81B8851F962D91D9
:104820003C91509721153105F9F01C968D919C9182
:104830001D971E964C91F30160817181A981BA8107
:10484000ED91FC916E1B7F0B1616170614F0605C41
:104850007F4F615071092617370708F4B9010E948C
:104860009422892B09F059CFC60128960FB6F894E7
:10487000DEBF0FBECDBFDF91CF911F910F91FF9093
:10488000EF90DF90CF90BF90AF909F908F907F90F0
:104890006F905F904F903F902F9008958F929F92CE
:1048A000AF92BF92CF92DF92EF92FF920F931F933E
:1048B000CF93DF93EC0160E070E0CB010E944106F2
:1048C0000E9474064B015C018E01075A1F4FCE01F6
:1048D000895A9F4F7C018F859889892BE1F00E942E
:1048E0007406681979098A099B0968397A43810530
:1048F000910588F4F80111821082D7011D921C9253
:104900008C859D854E856F8578896F33710548F557
:104910000E949422E0CFF80111821082D7011D92EB
:104920001C928C849D84F40180819181DC01ED9145
:10493000FC910084F185E02D0995892BA9F0B12C1B
:10494000A12CD12CC12CF12CE12C10E000E030E0A6
:1049500020E042E350E060E070E0C4010E941C1BD4
:10496000E2CF6FE370E0D4CF0C851D85BE84F801E3
:10497000E484F58466E971E0808191810E94400BB6
:1049800069EC71E0D8018D919C910E9414046B2D0B
:10499000F801808191810E94F60966EC71E0D801EE
:1049A0008D919C910E941404B701F801808191813E
:1049B0000E94400BD8018D919C91DC01ED91FC91FE
:1049C0000680F781E02D099560E070E0CB010E9440
:1049D00041061D8AF12CE12C10E000E030E020E0DF
:1049E00044E256E06CE276E08C859D850E94291CAD
:1049F000DF91CF911F910F91FF90EF90DF90CF90BB
:104A0000BF90AF909F908F9008955F926F927F922A
:104A10008F929F92AF92BF92CF92DF92EF92FF92CE
:104A20000F931F93CF93DF934C013B016A01590110
:104A3000DC01ED91FC910488F589E02D099560E099
:104A400070E0CB010E944106F401E75AFF4F11824A
:104A50001082329711821082F401C485D585568464
:104A60000C851D8566E971E0888199810E94400B63
:104A70006DEB71E0888199810E9414042AE040E086
:104A800050E0BA01888199810E949809B801888113
:104A900099810E94400B88819981DC01ED91FC9104
:104AA0000680F781E02D099560E070E0CB010E945F
:104AB0004106F12CE12C10E000E030E020E044E27F
:104AC00056E06CE276E0CE010E94291C0C851D8523
:104AD00066E971E0888199810E94400B62EB71E088
:104AE000888199810E941404652D888199810E9492
:104AF000F6096CE2888199810E940D046DEA71E0EB
:104B0000888199810E94140469EA71E08881998101
:104B10000E941404B301888199810E94400B66EAC7
:104B200071E0888199810E941404A60170E060E020
:104B30002AE0888199810E949809B8018881998129
:104B40000E94400B88819981DC01ED91FC910680E7
:104B5000F781E02D099560E070E0CB010E944106ED
:104B600028EE33E0D5010E940139AB01BC0185E696
:104B7000A82E81E0B82E90E7C92E91E0D92E28E723
:104B8000E22E21E0F22E0AE811E029E931E0CE011F
:104B90000E941C1B91E0813009F090E0F401958B9C
:104BA000892F90E0DF91CF911F910F91FF90EF90AF
:104BB000DF90CF90BF90AF909F908F907F906F903D
:104BC0005F9008951F920F920FB60F9211242F93AA
:104BD0003F934F935F936F937F938F939F93AF9385
:104BE000BF93EF93FF938DED92E00E94B604FF9187
:104BF000EF91BF91AF919F918F917F916F915F9155
:104C00004F913F912F910F900FBE0F901F901895CD
:104C10001F920F920FB60F9211242F938F939F9391
:104C2000EF93FF93E091ED02F091EE028081E0912D
:104C3000F302F091F40282FD1BC090818091F60294
:104C40008F5F8F732091F702821741F0E091F60297
:104C5000F0E0E352FD4F958F8093F602FF91EF91C4
:104C60009F918F912F910F900FBE0F901F901895CD
:104C70008081F4CF1F920F920FB60F9211242F93C1
:104C80003F938F939F93AF93BF93809183029091B3
:104C90008402A0918502B09186023091820223E0C5
:104CA000230F2D3758F50196A11DB11D20938202C7
:104CB0008093830290938402A0938502B09386022E
:104CC0008091870290918802A0918902B0918A0216
:104CD0000196A11DB11D8093870290938802A09335
:104CE0008902B0938A02BF91AF919F918F913F91BA
:104CF0002F910F900FBE0F901F90189526E8230F4D
:104D00000296A11DB11DD2CF1F920F920FB60F9226
:104D100011242F933F934F935F936F937F938F93C0
:104D20009F93AF93BF93EF93FF93E0918D02F09128
:104D30008E02309749F0A685B7858585968D91FFBF
:104D400014C09C918923A1F4FF91EF91BF91AF9181
:104D50009F918F917F916F915F914F913F912F9193
:104D60000F900FBE0F901F9018959C91892361F7AB
:104D7000A389B4899C918589809589238C938689A0
:104D800097890197F1F7608D718DA685B785558557
:104D900038E020E0CB010197F1F7822F90E0959564
:104DA0008795282F4C91452309F02068315091F7C1
:104DB000868D81FD209580918C0290E001968F7305
:104DC000992730918B02381799F0A0918C02B0E0AE
:104DD000AE5BBD4F2C9380938C02828D938D019797
:104DE000F1F7A389B4898C919589892B8C93ACCFE9
:104DF000868D8160868FF1CFDC01ED91FC9111975A
:104E0000309761F012962D913C911397E217F307BA
:104E100028F401900020E9F7ED93FC930895FC013C
:104E200080819181009739F0228133818217930725
:104E300010F40C94063390E080E00895CF92DF9256
:104E4000EF92FF920F931F93CF93DF93CDB7DEB70F
:104E5000C65AD1090FB6F894DEBF0FBECDBF6C01A4
:104E600046E650E064E372E0CE0101960E944B33C7
:104E7000CE0189599F4F7C0106E610E09E012F5F0D
:104E80003F4F50E040E061E1C6010E945816CA550C
:104E9000DF4F0FB6F894DEBF0FBECDBFDF91CF91CD
:104EA0001F910F91FF90EF90DF90CF900895CF92D8
:104EB000DF92EF92FF92CF931092E0021092DF0206
:104EC00028EEC22E23E0D22EE12CF12CC092E1027A
:104ED000D092E202E092E302F092E40284E491E0F4
:104EE0009093DE028093DD0285EC90E09093EA02DD
:104EF0008093E90284EC90E09093EC028093EB02C3
:104F000080EC90E09093EE028093ED0281EC90E0D3
:104F10009093F0028093EF0282EC90E09093F20283
:104F20008093F10286EC90E09093F4028093F30278
:104F30001092F6021092F7021092F8021092F90203
:104F400088E891E090936A048093690410926B045E
:104F500010926C0410926D0410926E0410925D0415
:104F600010925C0490935F0480935E04109260043E
:104F7000109261041092620410926304109265040E
:104F800010926404109267041092660410926804F0
:104F90008CE594E09093E7038093E6031092E90395
:104FA0001092E8031092EB031092EA031092EC03C4
:104FB0001092ED031092EE031092EF031092F003A3
:104FC0001092F1031092F2031092F3031092F40383
:104FD0001092F5031092F6031092F7031092F90362
:104FE0001092F8031092FB031092FA031092FC0344
:104FF0001092FE031092FD03109200041092FF0322
:105000001092040410920304C0920504D092060486
:10501000E0920704F092080410925B0410925A0484
:10502000109259041092580488E691E0909302047B
:105030008093010461EF71E080EE93E00E94F90F2C
:105040001092C4031092C303C092C503D092C6034A
:10505000E092C703F092C80386E591E09093C20303
:105060008093C1031092D8031092D7031092DA03F1
:105070001092D9031092DC031092DB031092DE032E
:105080001092DD036091DF036E7F6D7F6093DF031D
:105090006695617081E0682788E00E94970561E06D
:1050A00088E00E94C505E2EBF7E0E491E093D103CC
:1050B000EEE9F7E0E491F0E0EE0FFF1FE457F84F60
:1050C000859194919093D3038093D20360E089E01B
:1050D0000E94C5058091DF0381FD04C061E089E085
:1050E0000E949705C9E0C093CD03E3EBF7E0E4919C
:1050F000E093CE03EFE9F7E0E491F0E0EE0FFF1F5D
:10510000EE57F84F859194919093D0038093CF03FD
:1051100060E084E00E94C505EEEAF7E0E491E093E8
:10512000B303EAE9F7E0E491F0E0EE0FFF1FEE577A
:10513000F84F859194919093B5038093B4031092A6
:10514000BE031092C0031092BF031092BD031092D1
:10515000BC031092BB031092BA031092B9031092D1
:10516000B8031092B7031092B6031092B2031092D4
:10517000B10310929D0383EB93E09093A603809379
:10518000A5031092A3031092A40310929C03C09352
:105190009F03C1E0C093A003C093A103C093A203E7
:1051A00081EC93E090938F0380938E038FEE91E0D8
:1051B00090939B0380939A03E0E9F3E08AE0DF0198
:1051C0001D928A95E9F7109284031092850310923C
:1051D000860310928703C0938C03C0938D0388E8E5
:1051E00093E1A0E0B0E08093880390938903A093BB
:1051F0008A03B0938B030E947406609384037093B8
:105200008503809386039093870310927A0310920C
:105210007B0310927C0310927D03C0938203C093A2
:10522000830380E197E2A0E0B0E080937E03909357
:105230007F03A0938003B09381030E947406609360
:105240007A0370937B0380937C0390937D03CF91CB
:10525000FF90EF90DF90CF900895CF93DF93CDB77D
:10526000DEB7C15DD1090FB6F894DEBF0FBECDBF6A
:10527000789484B5826084BD84B5816084BD85B531
:10528000826085BD85B5816085BD80916E0081603D
:1052900080936E00109281008091810082608093E3
:1052A00081008091810081608093810080918000E5
:1052B0008160809380008091B10084608093B10010
:1052C0008091B00081608093B00080917A0084600A
:1052D00080937A0080917A00826080937A00809136
:1052E0007A00816080937A0080917A008068809350
:1052F0007A001092C10061E08BE00E94C50561E078
:105300008CE00E94C50562E082E00E94C50562E073
:1053100083E00E94C50583E080930001E091ED02E7
:10532000F091EE0282E08083E091E902F091EA02DE
:105330001082E091EB02F091EC028FEC80831092EE
:10534000F502E091F102F091F20286E08083E091B3
:10535000EF02F091F002808180618083E091EF02A2
:10536000F091F002808188608083E091EF02F091FB
:10537000F002808180688083E091EF02F091F0027A
:1053800080818F7D80836AE070E080E090E00E9401
:1053900041061092DC031092DB031092DA031092A4
:1053A000D9031092D8031092D7038DE991E090931E
:1053B000DE038093DD039091CD03963108F047C062
:1053C0002DEB30E03093D8032093D7032BE931E065
:1053D0003093DA032093D9032CE231E03093DC03DD
:1053E0002093DB032091680084E0983048F031E09E
:1053F0009E3008F430E081E001C0880F3A95EAF76A
:10540000822B809368002DE630E0983050F02BE638
:1054100030E09E3030F02CE630E0963110F030E095
:1054200020E03093D5032093D403292F30E0983027
:1054300008F020C281E001C0880F9A95EAF78093B6
:10544000D6038091DD039091DE030197F1F78091FF
:10545000DB039091DC03892B49F1E0918D02F091FF
:105460008E0223E0E13CF20709F1309739F0A3897D
:10547000B4899C918589809589238C938091DF03E1
:105480008E7F8093DF0310928C0210928B0281EC4E
:1054900093E090938E0280938D02E091D403F0917B
:1054A000D50380819091D603892B808368EB7BE0C4
:1054B00080E090E00E94410688EC91E00E944F0A53
:1054C0000E94231D6EED71E08DED92E00E94400B75
:1054D0006FE473E08EE893E00E94850B61EF71E06A
:1054E000CE018E559F4F0E94F90F912C812CB12C2B
:1054F000A12CD12CC12C14E2E12E16E0F12E0CE2ED
:1055000016E09E012E553F4F48EE53E060E070E0FC
:105510008EE893E00E94CD18AE014F5F5F4F6A01A5
:1055200061EF71E0813009F4B2C1CA010E94F90F44
:10553000CE018E559F4F0E940A10C6010E94850918
:10554000C6010E940A100E94611D0E948B17CE01A5
:105550000A96C453DF4F99838883CC5CD040B0E86F
:105560004B2EB3E45B2E612C712C86EE93E00E94EF
:10557000BF1082E00E946E0501E010E0892B11F05F
:1055800010E000E00E9474062091070130910801AC
:105590000217130741F06093930270939402809373
:1055A0009502909396028090930290909402A0901E
:1055B0009502B0909602681979098A099B096536A7
:1055C000710581059105A4F0809105019091060176
:1055D0000817190769F01093060100930501B80137
:1055E00088E090E00E946E1887EF91E00E944F0AD9
:1055F000109308010093070183E00E946E0501E00B
:1056000010E0892B11F010E000E00E947406209158
:105610000301309104010217130741F060938F02D8
:1056200070939002809391029093920280908F02E7
:1056300090909002A0909102B0909202681979091E
:105640008A099B096536710581059105A4F0809151
:105650000101909102010817190769F010930201E6
:1056600000930101B80189E090E00E946E1881E08A
:1056700092E00E944F0A109304010093030180916D
:105680008303882309F477C08AE793E00E94AD077B
:10569000882309F470C08091FD039091FE03019767
:1056A00009F461C06BE072E08DED92E00E94400B66
:1056B00040919702509198026091990270919A02DC
:1056C0002AE08DED92E00E9498090E947009809175
:1056D000970290919802A0919902B0919A02019636
:1056E000A11DB11D8093970290939802A0939902F7
:1056F000B0939A0240919F025091A0026091A10242
:105700007091A2024F5F5F4F6F4F7F4F40939F0298
:105710005093A0026093A1027093A2020697A10584
:10572000B10548F10E94231D0E94611D0E948B1744
:105730001092A3021092A4021092A5021092A60247
:1057400080919B0290919C02A0919D02B0919E023B
:105750000196A11DB11D80939B0290939C02A09382
:105760009D02B0939E02109297021092980210929E
:10577000990210929A0280918D03882309F469C5D9
:1057800084E893E00E94AD07882309F462C581E1B3
:105790000E940106BC01990F880B990B0E942E36BE
:1057A00020E030E046EF52E40E9401386093D702D7
:1057B0007093D8028093D9029093DA028FE00E940E
:1057C0000106BC01990F880B990B0E942E3620E030
:1057D00030E046EF52E40E9401386093D3027093A8
:1057E000D4028093D5029093D60266E172E08DEDEB
:1057F00092E00E94400B6091D7027091D802809194
:10580000D9029091DA0242E00E945E0A6EE172E0F3
:105810008DED92E00E94400B6091D3027091D40212
:105820008091D5029091D60242E00E945E0A80905B
:10583000D3029090D402A090D502B090D60220E07E
:1058400030E040E250E4C501B4010E94A2381816CD
:105850000CF0BFC08091090181111092090120E074
:1058600030E040E250E4C501B4010E94273687FDD4
:10587000BEC0C0C09E3040F42850310981E001C054
:10588000880F2A95EAF7DBCD2E503109F7CFCE01EC
:105890008F579F4F0E94F90F6BEE71E0C6010E9477
:1058A000F90FAE014F575F4FB601CE018E559F4F96
:1058B0000E947F0DC6010E940A10CE018F579F4F94
:1058C0000E940A1061EF71E0CE018F579F4F0E9436
:1058D000F90F62EF71E0C6010E94F90FAE014F5758
:1058E0005F4FB601CE018E559F4F0E947F0DC601BE
:1058F0000E940A10CE018F579F4F0E940A1066E344
:1059000072E0CE018F579F4F0E94F90F6FEE71E04A
:10591000C6010E94F90FAE014F575F4FB601CE018D
:105920008E559F4F0E947F0DC6010E940A10CE0126
:105930008F579F4F0E940A1066E372E0CE018F5787
:105940009F4F0E94F90F65EF71E0C6010E94F90FA9
:10595000AE014F575F4FB601CE018E559F4F0E944B
:105960007F0DC6010E940A10CE018F579F4F0E94E3
:105970000A10CE018E559F4F0E94D40CCE55DF4F9A
:1059800088819981C25AD0409A838983CC55DF4F50
:1059900088819981C45AD0409C838B83CA55DF4F3C
:1059A00088819981C65AD0409E838D83CE55DF4F22
:1059B00019821882C25AD040CC55DF4F1982188202
:1059C000C45AD040CA55DF4F19821882C65AD040F7
:1059D000AFCD20E030E040E250E4C501B4010E94C8
:1059E000273687FF07C080910901811103C081E03C
:1059F000809309011092D2021092D1028091A503E6
:105A00009091A6030E94930840E06CEC8091A5035E
:105A10009091A6030E945F0840919C0364E48091EA
:105A2000A5039091A6030E945F088091A00388239C
:105A300011F1E0919F038091A103882309F4FFC035
:105A400080919C038111FBC00E9474064B015C0194
:105A50008091A5039091A6030E940C08813059F013
:105A60000E947406681979098A099B096E3E724082
:105A70008105910568F3E091D102F091D202C25301
:105A8000DF4FF983E883CE5CD0403A970CF05AC0E0
:105A9000C253DF4F8880CE5CD040E091A503F091E7
:105AA000A603138615861486128611861086178221
:105AB0001682158214821382912CE090A503F09037
:105AC000A603D7011D968C91882309F4E0C0F70145
:105AD00013861586148660E070E08EEF92ECC25358
